:1000000043C000005CC000005AC0000058C000009F
:1000100056C0000054C0000052C0000050C0000094
:100020004EC000004CC000004AC0000048C00000A4
:1000300046C0000044C0000042C0000040C00000B4
:100040003EC000003CC000003AC0000038C00000C4
:1000500036C0000034C0000032C0000030C00000D4
:100060002EC000002CC000002AC0000028C00000E4
:1000700026C0000024C0000022C0000020C00000F4
:100080001EC000001CC0000011241FBECFEFCDBF5A
:10009000DFE7DEBF11E6A0E0B0E6E4E4FEE002C088
:1000A00005900D92A631B107D9F725E6A6E1B1E694
:1000B00001C01D92A234B207E1F72BD09EC6A0CF9B
:1000C000CF93DF9300D0CDB7DEB789E190E01982FE
:1000D0001A8229813A81283E334038F00197B9F7D6
:1000E0000F900F90DF91CF910895000029813A8100
:1000F0002F5F3F4F29833A83ECCF88E080934604FB
:100100008093420496D288ED91E084BF90930001E1
:10011000FFCF809140008CBB9FEF90934000909167
:100120001001906428ED24BF9093100184FF34C027
:100130001092426510924365C0E4DFE1809168004F
:1001400098ED837C846294BF8093680080E094BFC4
:10015000809361008091650081FFFCCF36D2B6D2DA
:1001600089D3C0931661D093176188E080934104CE
:100170008093460458D218E0C0E0D0E00FD1A7D257
:100180009DD321968091166190911761C817D90768
:10019000A8F310934704F0CF82FF25C080914265F9
:1001A000909143658D399B4639F4109242651092C7
:1001B0004365C0E8DEE3C2CF8DE99BE680934265EC
:1001C0009093436588E080934104C8E0DAE0C093EF
:1001D000450476DFC093460473DFD150C1F7C09366
:1001E0004604C09342041092426510924365E0E0D9
:1001F000F0E185919591C0E0DDE7019609F49ECF8D
:10020000F89488E080934604809342048091100122
:1002100098ED8F7B94BF809310011092000C109288
:10022000010C80910110806394BF80930110E0E085
:10023000F8E0099480910B0C82FDFCCF0895E8EF63
:10024000F1E681A1846081A381A5846081A71092D9
:100250001E6110921F610895CF939B0146175707A7
:1002600008F49A012134310550F5FC01820F931FE7
:10027000A0EBB1E6E817F907F9F480EB91E680937B
:10028000246290932562209322623093236210921D
:1002900026621092276283E480932162CBDFCAE654
:1002A000C093420CC7DFC093400C81E080931E6175
:1002B00010921F61CF91089541914D93DBCF8093B0
:1002C00024629093256220932262309323621092DD
:1002D00026621092276283E7DFCFE8EFF1E612A6ED
:1002E00013A616A617A683E481A7A4DF8AE6809347
:1002F000420C83E080931E6110921F610895E8EF25
:10030000F1E682E291E0DF019C011D922150304034
:10031000E1F783E481A320EF31E624A335A310A203
:1003200081A780EB91E684A795A782E080A791E85A
:1003300091AF20EA31E624AF35AF80AF93E89093D8
:10034000396220E631E620933C6230933D621092A0
:1003500038629093516220E231E6209354623093E8
:100360005562809350620895B8CF76CFE8EFF1E6FA
:1003700084A795A712A613A666A777A783E681A7E9
:1003800059DF8AE68093400C82E080931E611092D0
:100390001F6181E080931B61089551CFCF93DF935C
:1003A00080910A0CC0910B0C84FF11C01092030CB9
:1003B000A6DF10921E6110921F6110921C611092B4
:1003C0001D6110921B6160D180E180930A0CC0FF17
:1003D00017C083E480931962809321622BDFD0E100
:1003E000D093400C27DFD093420C8091F06180764F
:1003F00009F1803209F49AC022DF81E080930B0C6E
:10040000C5FFD4C08091206285FF99C013DF80E2D0
:100410008093420C80911E6190911F618130910503
:1004200009F488C0059709F4C4C010921E611092A7
:100430001F6185C0E091F161EC30F0F6F0E0E15031
:10044000F94FCEC42091F2613091F361832F90E097
:100450008230910589F18330910539F0019761F679
:1004600062E170E083EB90E61BC0822F90E02230C7
:10047000E9F08330910538F4892B69F464E070E089
:100480008CE690E60DC009F0B7CF6091076070E090
:1004900088E090E605C060914D6070E08EE490E6E3
:1004A0004091F6615091F761D7DEA7CF60911E6051
:1004B00070E08FE190E6F4CF63E470E080E790E6CF
:1004C000EFCF8091F2618F7780931D6106DF85E029
:1004D00080931E6110921F6190CF80911C61809368
:1004E00018614091F6615091F76161E070E088E138
:1004F00091E6DACF8091F26180931C61EEDE9ADEA4
:1005000082E08093480C79CF1092196110921A61A1
:100510004091F6615091F76162E070E089E191E607
:10052000C3CFDBDE6ACF10921861DBCF80EF91E69C
:1005300086D063CF84E080931E6110921F6180910A
:10054000186285FF12C076DE80E28093400C8091B5
:100550001E6190911F61029799F580911B61811531
:1005600019F010921B618AD0B8DE8091306285FF4D
:1005700004C060DE80E28093460C8091386285FF83
:1005800009C058DE80E28093480C80913A629091D5
:100590003B628BD08091506285FF05C04BDE80E2CC
:1005A00080934E0C90D080E280930B0CDF91CF9122
:1005B000089580911D618093030C10921D6135CFC9
:1005C00010921E6110921F61D0CF809168008C7BC9
:1005D000826498ED94BF8093680081E08093060F59
:1005E0008FE697E10197F1F700C0000088DE88E10F
:1005F00092E68093060C9093070C1092080C1092D0
:10060000090C83E88093000C80E492E4AFE0B0E052
:100610002091850020FD04C00197A040B040C1F7A3
:100620001092010C0895E0E0FCE0818181608183FB
:100630000895E0E0FCE081818E7F81830895FC01D4
:100640009181943230F49232C0F4903219F09132A8
:1006500069F0A3CE868197810797D9F781E08093CF
:10066000216367E070E080E090E680CE46815781AC
:1006700067E070E080E090E678CE76CE80912163EE
:10068000811110922163089510921F6310922063CC
:1006900010921D6310921E6310921C6310921A63D5
:1006A00010921B631092216308958134910510F01C
:1006B00080E490E080931F639093206310921D6309
:1006C00010921E63089510921C630895DDCF8091EF
:1006D0001F6390912063892BF1F020911D6330916D
:1006E0001E6380911F63909120632817390798F04B
:1006F00010921F631092206310921D6310921E636C
:1007000010923A6210923B6280910B0C82FDFCCFFA
:1007100082E08093480C80911C63811120C08091FD
:100720001A6390911B63892BD1F08091506281FFF5
:1007300016C080911A6390911B63809352629093CC
:10074000536280910B0C82FDFCCF82E080934E0CB3
:1007500081E080931C6310921A6310921B630895CA
:1007600020911D6330911E6380911F6390912063DF
:100770002817390788F480911D6390911E639C01AE
:100780002F5F3F4F20931D6330931E63805A9E4915
:10079000FC01808190E008958FEF9FEF0895CF9343
:1007A000DF930F92CDB7DEB7898380911A63909162
:1007B0001B6380349105B0F480911A6390911B63A0
:1007C0009C012F5F3F4F20931A6330931B63805E21
:1007D0009E492981FC0120830F90DF91CF910895DC
:1007E00076DFDCDD80911C638111FACF80911A6382
:1007F00090911B638034910598F7DECF80911A6346
:1008000090911B63892B89F480911C6381110DC029
:1008100008955DDFC3DD80911C63811106C0809166
:100820001A6390911B63892B01F180911C638111E4
:10083000F0CF80911A6390911B63892B51F38091C3
:100840001A6390911B6380935262909353628091DC
:100850000B0C82FDFCCF82E080934E0C81E08093F4
:100860001C6310921A6310921B63089584E197DF52
:1008700080E195CF109240651092416510923D65E0
:1008800010923E6510923C65109227651092256586
:1008900010922665109224651092226310922363B1
:1008A000E8E2F5E684E1DF011D928A95E9F740E090
:1008B00052E06FEF70E084E293E698C28F929F92CD
:1008C000AF92BF92EF92FF920F931F93CF93DF935C
:1008D00000D000D0CDB7DEB702E010E041DF97FFD7
:1008E0000EC02496CDBFDEBFDF91CF911F910F9137
:1008F000FF90EF90BF90AF909F908F900895482FFA
:1009000020914065309141652330310509F43FC1A4
:1009100048F52130310509F47AC02230310509F05B
:100920004EC0803209F0CFC0E0913F65E03F09F052
:100930008FC0809124658F7D863409F07AC0209124
:1009400025653091266560913D6570913E6580E03A
:1009500090E044E253E66CD189DF1092406510923A
:100960004165BCCF2430310509F43DC12530310546
:1009700009F0B4CFE091276591E09E0F9093276531
:10098000F0E0E85DFA49808380913C658150809376
:100990003C658111A3CF80912865909129659827A6
:1009A00089279827809325659093266520912A654D
:1009B000209324658130924070F481EF2CC18093A4
:1009C0003F658053863438F4E82FF0E0E853FF4960
:1009D00080818E3F29F400934065109341657ECF5E
:1009E00070F01092276583E080933C65443629F4CB
:1009F000809340651092416571CF85E0F9CF8115F4
:100A000051F31092276580933C6581E0F1CFE0912E
:100A1000276591E09E0F90932765F0E0E85DFA4925
:100A2000808380913C65815080933C65811599F26B
:100A300055CF853409F090CF4091256550912665BA
:100A400064E273E680913D6590913E6589D184CFE3
:100A5000E13F81F584E1A3DE80903D6590903E65A5
:100A6000A12CB12C75018091256590912665E81621
:100A7000F90618F080E193DE70CF809124658F7DB8
:100A8000863461F4B401C5016E0D7F1D811D911D79
:100A900053D185DE2FEFE21AF20AE5CF853441F417
:100AA00080913D6590913E658E0D9F1D91D1F1CF56
:100AB0008FEFEFCFE73580F4E03438F4E03309F41A
:100AC0004BCFE133B1F085E1D6CFE054E731D8F731
:100AD000F0E0E55FF84F84C1E537A9F784E15FDE18
:100AE000809180105CDE8091811059DE80918210AF
:100AF00020C084E154DE9EE0E92E91E6F92EF70154
:100B00004FEFE41AF40A80814ADE85E1E81681E6B7
:100B1000F806A9F7AFCFE0912865E05883E0F82EFA
:100B2000E33020F4F0E0EB53FF49F08084E137DE5E
:100B30008F2D35DE9FCF84E132DE80E130DE5EDE58
:100B400019821A821B821C8289819A81AB81BC81A5
:100B500080349D40A340B10508F0CFDA89819A81A5
:100B6000AB81BC810196A11DB11D89839A83AB83A2
:100B7000BC83EACF809128659091296580933D657B
:100B800090933E65E9CE84E10ADE80E0D2CFE09129
:100B9000276591E09E0F90932765F0E0E85DFA49A4
:100BA000808380913C65815080933C65811196CE15
:100BB0008091286590912965382F292F909325657C
:100BC0008093266540912A65409324652130324008
:100BD00008F001CF1092226310922363892B09F44D
:100BE000FACE84E005CF2091226330912363A901DE
:100BF0004F5F5F4F40932263509323632C5D3C49CA
:100C0000F9018083809125659091266548175907E1
:100C100008F464CE80EF80933F6582E0E9CE909146
:100C2000061091FDFCCF9DE994BF809300100895BC
:100C3000BF92CF92DF92EF92FF920F931F93CF93C9
:100C4000DF936A0170318105910508F46BC02115AD
:100C5000310509F467C0E9012130324010F0C0E0ED
:100C6000D2E02091011031E070388105910508F43F
:100C700030E0F32EF29480EFF8222F7C322F3F29C0
:100C800028ED24BF309301108B011068E02EB12EA7
:100C900088E0C5DF8FEFF80180838091061081FD29
:100CA000FCCF81E0BCDF809101108F7CF82A88EDB9
:100CB00084BFF092011082E0B2DFD60181E090E0C3
:100CC0008C179D07F0F0CE018E7F8C179D0770F476
:100CD000EC01C00FD11FC80ED91EF60180819FEF15
:100CE000888399838091061081FDFCCF81E0DF919C
:100CF000CF911F910F91FF90EF90DF90CF90BF9019
:100D00008ECF11964C912E91342FEE2DFB2D2193E9
:100D100031932091061021FDFCCF02961296EE2E03
:100D2000BF2ECECFDF91CF911F910F91FF90EF900B
:100D3000DF90CF90BF9008953091011021E070387E
:100D40008105910508F420E03F7C20FD306128ED0D
:100D500024BF30930110AB015068FA0180810895DF
:100D60000F931F93911131C08A0120E030E0080FEA
:100D7000191F211D311D013011402105310510F1D0
:100D800040E051E0481B590BFC01FC5E80910610CD
:100D90008370E1F78DE984BF83E180930010DB016C
:100DA000460F571F8D9180838091061080FDFCCFE8
:100DB0003196A417B507B1F78DE984BF81E0809320
:100DC000001003C041155105F9F61F910F910895C8
:100DD000911104C0FC01FC5E808108958FEF08959D
:100DE000EE0FFF1F0590F491E02D0994DC0101C086
:100DF0006D9341505040E0F70895F894FFCF84027E
:100E00009102FC019102FC0161022202FC016D02CF
:100E10007A0293029102AC048B05AC04630563056E
:100E2000AC0463056305630563056305630563053A
:100E3000630563056305AC049B05AC0463056305AA
:040E4000BA05C30527
:100E440000C2010000000816160342004C003000E6
:100E540030003000300030003000300031002E2EE1
:100E64000355006B00690055006B00690064007550
:100E74000069006E006F00200042006F006F007474
:100E8400006C006F0061006400650072001E1E03A8
:100E940057006F0072006B00730068006F007000F1
:100EA4002000410073006100680069000403090424
:100EB4000902430002010080320904000001020219
:100EC400010005240010010524010001042402028C
:100ED40005240600010705810310004009040100F0
:100EE400020A000000070502024000000705830211
:100EF400400000120100020200004009120B000031
:100F040001010203010108020000FEFEFEFEFEFED6
:100F1400FEFEFEFEFEFEFEFE020114FEFE05FEFEC9
:100F2400FEFEFEFEFEFEFEFE000000FEFE0204FECD
:100F3400FEFEFEFEFEFEFEFEFEFEFEFEFFFEFEFECC
:100F4400FEFEFEFEFEFEFEFEFEFEFEFEFF0041561F
:060F5400522053544B0033
:00000001FF
