:1000000043C000005CC000005AC0000058C000009F
:1000100056C0000054C0000052C0000050C0000094
:100020004EC000004CC000004AC0000048C00000A4
:1000300046C0000044C0000042C0000040C00000B4
:100040003EC000003CC000003AC0000038C00000C4
:1000500036C0000034C0000032C0000030C00000D4
:100060002EC000002CC000002AC0000028C00000E4
:1000700026C0000024C0000022C0000020C00000F4
:100080001EC000001CC0000011241FBECFEFCDBF5A
:10009000DFE7DEBF11E6A0E0B0E6ECE9FEE002C07B
:1000A00005900D92A631B107D9F725E6A6E1B1E694
:1000B00001C01D92A434B207E1F72ED0CAC6A0CF6A
:1000C00098E0089A00C000C0000087FF089800C0B0
:1000D00000C000C000C000C000C00898880F00C069
:1000E00000C000009A9569F70895CF93CFB7F894B0
:1000F00080E0E6DF80E0E4DF80E0E2DFCFBF81E0A8
:1001000080930604CF910895F0DFBFD288ED91E08F
:1001100084BF90930001FFCF00D0CDB7DEB78091B0
:1001200040008CBB9FEF9093400090911001906431
:1001300028ED24BF9093100184FF50C010924465B5
:100140001092456500E41FE18091680098ED837C82
:10015000846294BF8093680080E094BF80936100C4
:100160008091650081FFFCCF5CD2DCD2AFD30093DD
:100170001861109319611092176181E080931661E4
:1001800080930104809306047AD200E010E032D11B
:10019000CAD2C0D30F5F1F4F80911861909119612F
:1001A00025E0969587952A95E1F70817190778F3C2
:1001B00080911761811163C041E040931661009105
:1001C0001661080F009317611FB7F894802F78DF2E
:1001D000802F76DF80E074DF1FBFD7CF82FF24C07F
:1001E00080914465909145658D399B4639F4109214
:1001F00044651092456500E81EE3A6CF8DE99BE6B5
:10020000809344659093456581E0809301048093D9
:10021000060484EF91E019821A8229813A81283EEE
:10022000334028F10197B9F7109244651092456563
:10023000E0E0F0E18591959100E01DE7019609F479
:1002400083CFF89452DF8091100198ED8F7B94BF9B
:10025000809310011092000C1092010C80910110FB
:10026000806394BF80930110E0E0F8E009940000FF
:1002700029813A812F5F3F4F29833A83CECF803641
:1002800008F49DCF9FEF9093166199CF80910B0C4E
:1002900082FDFCCF0895EAEFF1E681A1846081A39D
:1002A00081A5846081A71092206110922161089538
:1002B000CF939B014617570708F49A012134310563
:1002C00050F5FC01820F931FA2EBB1E6E817F90786
:1002D000F9F482EB91E68093266290932762209353
:1002E000246230932562109228621092296283E47E
:1002F00080932362CBDFCAE6C093420CC7DFC09372
:10030000400C81E08093206110922161CF9108958B
:1003100041914D93DBCF8093266290932762209387
:10032000246230932562109228621092296283E73A
:10033000DFCFEAEFF1E612A613A616A617A683E40E
:1003400081A7A4DF8AE68093420C83E0809320613A
:10035000109221610895EAEFF1E682E291E0DF0177
:100360009C011D9221503040E1F783E481A322EFEC
:1003700031E624A335A310A281A782EB91E684A7DE
:1003800095A782E080A791E891AF22EA31E624AFF9
:1003900035AF80AF93E890933B6222E631E620933D
:1003A0003E6230933F6210923A629093536222E22F
:1003B00031E62093566230935762809352620895DB
:1003C000B8CF76CFEAEFF1E684A795A712A613A6D9
:1003D00066A777A783E681A759DF8AE68093400C5A
:1003E00082E0809320611092216181E080931D6101
:1003F000089551CFCF93DF9380910A0CC0910B0CDD
:1004000084FF11C01092030CA6DF1092206110929D
:10041000216110921E6110921F6110921D6160D1C6
:1004200080E180930A0CC0FF17C083E480931B62B5
:10043000809323622BDFD0E1D093400C27DFD09351
:10044000420C8091F261807609F1803209F49AC001
:1004500022DF81E080930B0CC5FFD4C08091226223
:1004600085FF99C013DF80E28093420C8091206168
:10047000909121618130910509F488C0059709F4B4
:10048000C4C0109220611092216185C0E091F36197
:10049000EC30F0F6F0E0E55DF84FCEC42091F46169
:1004A0003091F561832F90E08230910589F183309E
:1004B000910539F0019761F662E170E083EB90E617
:1004C0001BC0822F90E02230E9F08330910538F490
:1004D000892B69F464E070E08CE690E60DC009F0C9
:1004E000B7CF6091076070E088E090E605C060914A
:1004F0004D6070E08EE490E64091F8615091F961B2
:10050000D7DEA7CF60911E6070E08FE190E6F4CF58
:1005100063E470E080E790E6EFCF8091F4618F773D
:1005200080931F6106DF85E0809320611092216136
:1005300090CF80911E6180931A614091F861509133
:10054000F96161E070E08AE191E6DACF8091F461CF
:1005500080931E61EEDE9ADE82E08093480C79CFB4
:1005600010921B6110921C614091F8615091F961E9
:1005700062E070E08BE191E6C3CFDBDE6ACF1092E0
:100580001A61DBCF82EF91E686D063CF84E080935F
:1005900020611092216180911A6285FF12C076DE7F
:1005A00080E28093400C80912061909121610297BC
:1005B00099F580911D61811519F010921D618AD005
:1005C000B8DE8091326285FF04C060DE80E28093F5
:1005D000460C80913A6285FF09C058DE80E2809324
:1005E000480C80913C6290913D628BD08091526228
:1005F00085FF05C04BDE80E280934E0C90D080E2F8
:1006000080930B0CDF91CF91089580911F618093AF
:10061000030C10921F6135CF10922061109221615E
:10062000D0CF809168008C7B826498ED94BF8093DA
:10063000680081E08093060F8FE697E10197F1F75C
:1006400000C0000088DE8AE192E68093060C909359
:10065000070C1092080C1092090C83E88093000C90
:1006600080E492E4AFE0B0E02091850020FD04C07A
:100670000197A040B040C1F71092010C0895E0E04E
:10068000FCE08181816081830895E0E0FCE081816C
:100690008E7F81830895FC019181943230F49232EF
:1006A000C0F4903219F0913269F0A3CE868197811F
:1006B0000797D9F781E08093236367E070E080E0DB
:1006C00090E680CE4681578167E070E080E090E65A
:1006D00078CE76CE809123638111109223630895A2
:1006E000109221631092226310921F631092206374
:1006F00010921E6310921C6310921D63109223636C
:1007000008958134910510F080E490E08093216396
:100710009093226310921F631092206308951092A9
:100720001E630895DDCF8091216390912263892B10
:10073000F1F020911F6330912063809121639091AB
:1007400022632817390798F01092216310922263D0
:1007500010921F631092206310923C6210923D62CF
:1007600080910B0C82FDFCCF82E08093480C80913D
:100770001E63811120C080911C6390911D63892BA1
:10078000D1F08091526281FF16C080911C639091DC
:100790001D63809354629093556280910B0C82FD8F
:1007A000FCCF82E080934E0C81E080931E63109218
:1007B0001C6310921D63089520911F633091206384
:1007C00080912163909122632817390788F48091E2
:1007D0001F63909120639C012F5F3F4F20931F6305
:1007E000309320638E599E49FC01808190E00895EA
:1007F0008FEF9FEF0895CF93DF930F92CDB7DEB7C2
:10080000898380911C6390911D6380349105B0F4BD
:1008100080911C6390911D639C012F5F3F4F20933B
:100820001C6330931D638E5D9E492981FC012083EA
:100830000F90DF91CF91089576DFDCDD80911E630C
:100840008111FACF80911C6390911D6380349105D2
:1008500098F7DECF80911C6390911D63892B89F4FA
:1008600080911E6381110DC008955DDFC3DD80910D
:100870001E63811106C080911C6390911D63892BBA
:1008800001F180911E638111F0CF80911C639091E2
:100890001D63892B51F380911C6390911D6380939C
:1008A00054629093556280910B0C82FDFCCF82E0E4
:1008B00080934E0C81E080931E6310921C63109213
:1008C0001D63089584E197DF80E195CF1092426522
:1008D0001092436510923F651092406510923E65FC
:1008E000109229651092276510922865109226654E
:1008F0001092246310922563EAE2F5E684E1DF01B9
:100900001D928A95E9F740E052E06FEF70E086E2D1
:1009100093E698C28F929F92AF92BF92EF92FF920E
:100920000F931F93CF93DF9300D000D0CDB7DEB7E6
:1009300002E010E041DF97FF0EC02496CDBFDEBF7E
:10094000DF91CF911F910F91FF90EF90BF90AF90EB
:100950009F908F900895482F209142653091436574
:100960002330310509F43FC148F52130310509F440
:100970007AC02230310509F04EC0803209F0CFC074
:10098000E0914165E03F09F08FC0809126658F7D41
:10099000863409F07AC020912765309128656091EE
:1009A0003F657091406580E090E046E253E66CD18F
:1009B00089DF1092426510924365BCCF2430310527
:1009C00009F43DC12530310509F0B4CFE091296526
:1009D00091E09E0F90932965F0E0E65DFA498083EF
:1009E00080913E65815080933E658111A3CF8091B7
:1009F0002A6590912B6598278927982780932765EA
:100A00009093286520912C65209326658130924033
:100A100070F481EF2CC1809341658053863438F4A3
:100A2000E82FF0E0E853FF4980818E3F29F40093DE
:100A30004265109343657ECF70F01092296583E084
:100A400080933E65443629F4809342651092436555
:100A500071CF85E0F9CF811551F31092296580930C
:100A60003E6581E0F1CFE091296591E09E0F909382
:100A70002965F0E0E65DFA49808380913E6581500A
:100A800080933E65811599F255CF853409F090CF5A
:100A9000409127655091286566E273E680913F6535
:100AA0009091406589D184CFE13F81F584E1A3DE57
:100AB00080903F6590904065A12CB12C750180918C
:100AC000276590912865E816F90618F080E193DE15
:100AD00070CF809126658F7D863461F4B401C501A5
:100AE0006E0D7F1D811D911D53D185DE2FEFE21A02
:100AF000F20AE5CF853441F480913F6590914065DD
:100B00008E0D9F1D91D1F1CF8FEFEFCFE73580F4A0
:100B1000E03438F4E03309F44BCFE133B1F085E150
:100B2000D6CFE054E731D8F7F0E0E95CF84F84C164
:100B3000E537A9F784E15FDE809180105CDE80916B
:100B4000811059DE8091821020C084E154DE9EE045
:100B5000E92E91E6F92EF7014FEFE41AF40A8081AD
:100B60004ADE85E1E81681E6F806A9F7AFCFE09105
:100B70002A65E05883E0F82EE33020F4F0E0EB53F0
:100B8000FF49F08084E137DE8F2D35DE9FCF84E191
:100B900032DE80E130DE5EDE19821A821B821C8228
:100BA00089819A81AB81BC8180349D40A340B1058D
:100BB00008F0AADA89819A81AB81BC810196A11DD6
:100BC000B11D89839A83AB83BC83EACF80912A6568
:100BD00090912B6580933F6590934065E9CE84E1C9
:100BE0000ADE80E0D2CFE091296591E09E0F9093DC
:100BF0002965F0E0E65DFA49808380913E65815089
:100C000080933E65811196CE80912A6590912B65E7
:100C1000382F292F909327658093286540912C6564
:100C2000409326652130324008F001CF10922463B2
:100C300010922563892B09F4FACE84E005CF209128
:100C4000246330912563A9014F5F5F4F4093246374
:100C5000509325632A5D3C49F90180838091276583
:100C6000909128654817590708F464CE80EF809367
:100C7000416582E0E9CE9091061091FDFCCF9DE99F
:100C800094BF809300100895BF92CF92DF92EF92AD
:100C9000FF920F931F93CF93DF936A017031810509
:100CA000910508F46BC02115310509F467C0E9010D
:100CB0002130324010F0C0E0D2E02091011031E04C
:100CC00070388105910508F430E0F32EF29480EF3E
:100CD000F8222F7C322F3F2928ED24BF30930110BA
:100CE0008B011068E02EB12E88E0C5DF8FEFF80190
:100CF00080838091061081FDFCCF81E0BCDF809174
:100D000001108F7CF82A88ED84BFF092011082E0F8
:100D1000B2DFD60181E090E08C179D07F0F0CE01A4
:100D20008E7F8C179D0770F4EC01C00FD11FC80E89
:100D3000D91EF60180819FEF8883998380910610E8
:100D400081FDFCCF81E0DF91CF911F910F91FF904A
:100D5000EF90DF90CF90BF908ECF11964C912E9157
:100D6000342FEE2DFB2D219331932091061021FD80
:100D7000FCCF02961296EE2EBF2ECECFDF91CF91F2
:100D80001F910F91FF90EF90DF90CF90BF9008954B
:100D90003091011021E070388105910508F420E0C0
:100DA0003F7C20FD306128ED24BF30930110AB0162
:100DB0005068FA01808108950F931F93911131C0FB
:100DC0008A0120E030E0080F191F211D311D01307C
:100DD00011402105310510F140E051E0481B590B4D
:100DE000FC01FC5E809106108370E1F78DE984BF01
:100DF00083E180930010DB01460F571F8D918083A4
:100E00008091061080FDFCCF3196A417B507B1F78D
:100E10008DE984BF81E08093001003C04115510526
:100E2000F9F61F910F910895911104C0FC01FC5E29
:100E3000808108958FEF0895EE0FFF1F0590F491C4
:100E4000E02D0994DC0101C06D9341505040E0F762
:100E50000895F894FFCFB002BD022802BD02280217
:100E60008D024E0228029902A602BF02BD02D804DA
:100E7000B705D8048F058F05D8048F058F058F051A
:100E80008F058F058F058F058F058F058F05D8047A
:0C0E9000C705D8048F058F05E605EF05A7
:100E9C0000C2010000000816160342004C0030008E
:100EAC0030003000300030003000300031002E2E89
:100EBC000355006B00690055006B006900640075F8
:100ECC000069006E006F00200042006F006F00741C
:100EDC00006C006F0061006400650072001E1E0350
:100EEC0057006F0072006B00730068006F00700099
:100EFC0020004100730061006800690004030904CC
:100F0C0009024300020100803209040000010202C0
:100F1C000100052400100105240100010424020233
:100F2C000524060001070581031000400904010097
:100F3C00020A0000000705020240000007058302B8
:100F4C00400000120100020200004009120B0000D8
:100F5C0001010203010108020000FEFEFEFEFEFE7E
:100F6C00FEFEFEFEFEFEFEFE020114FEFE05FEFE71
:100F7C00FEFEFEFEFEFEFEFE000000FEFE0204FE75
:100F8C00FEFEFEFEFEFEFEFEFEFEFEFEFFFEFEFE74
:100F9C00FEFEFEFEFEFEFEFEFEFEFEFEFF004156C7
:060FAC00522053544B00DB
:040FFA00F8950895C9
:020FFE00011AD6
:00000001FF
