:1000000043C000005CC000005AC0000058C000009F
:1000100056C0000054C0000052C0000050C0000094
:100020004EC000004CC000004AC0000048C00000A4
:1000300046C0000044C0000042C0000040C00000B4
:100040003EC000003CC000003AC0000038C00000C4
:1000500036C0000034C0000032C0000030C00000D4
:100060002EC000002CC000002AC0000028C00000E4
:1000700026C0000024C0000022C0000020C00000F4
:100080001EC000001CC0000011241FBECFEFCDBF5A
:10009000DFE7DEBF11E6A0E0B0E6E4EAFEE002C082
:1000A00005900D92AE31B107D9F725E6AEE1B1E684
:1000B00001C01D92AA34B207E1F72BD0F1C6A0CF40
:1000C000CF93DF9300D0CDB7DEB78AE190E0019700
:1000D00029F40F900F90DF91CF91089519821A8221
:1000E00029813A81283E334090F7000029813A81E6
:1000F0002F5F3F4F29833A83F3CF80E480936604D8
:1001000080936204ABD288ED91E084BF90930001AC
:10011000FFCF209140002CBB8FEF80934000809157
:100120001001806490E038ED34BF8093100124FF0B
:1001300034C010924A6510924B65C0E4DFE18091B3
:100140006800837C846298ED94BF8093680080E0AF
:1001500094BF809361008091650081FFFCCF4AD2FB
:10016000C9D295D3C0931E61D0931F6180E4809360
:100170006104809366046CD210E4D0E0C0E013D137
:10018000BAD2A9D3219680911E6190911F61C817A0
:10019000D907A8F310936704F0CF22FF25C0809100
:1001A0004A6590914B658D399B4639F410924A65AA
:1001B00010924B65C0E8DEE3C2CF8DE99BE68093E9
:1001C0004A6590934B6580E480936104DAE0C0E473
:1001D000C093650475DFC093660472DFD150C1F728
:1001E000C0936604C093620410924A6510924B65F6
:1001F000E0E0F0E185919491C0E0DDE7019609F43B
:100200009ECFF89480E4809366048093620480918A
:10021000100128ED8F7B90E024BF80931001109295
:10022000000C1092010C80910110806324BF809318
:100230000110E0E0F8E0099480910B0C82FDFCCF06
:100240000895E0E0F2E681A1846081A381A5846045
:1002500081A710922661109227610895CF939B0188
:100260004617570708F49A01FC01A8EBB1E62134C0
:10027000310580F080932C6290932D6220932A6246
:1002800030932B6210922E6210922F6283E717C078
:1002900081918D93CD01885B914682179307C0F3BE
:1002A00088EB91E680932C6290932D6220932A62D2
:1002B00030932B6210922E6210922F6283E480930F
:1002C0002962BADFCAE6C093420CB6DFC093400C85
:1002D00081E090E08093266190932761CF9108950B
:1002E000E0E0F2E612A613A616A617A683E481A7FD
:1002F000A3DF8AE68093420C83E090E0809326613E
:10030000909327610895E0E0F2E682E291E0DF0158
:100310009C011D9221503040E1F783E481A328EF36
:1003200031E624A335A310A281A788EB91E684A728
:1003300095A782E080A791E891AF28EA31E624AF43
:1003400035AF80AF93E89093416228E631E6209381
:10035000446230934562109240629093596228E261
:1003600031E620935C6230935D6280935862089519
:10037000B7CF74CFE0E0F2E684A795A712A613A644
:1003800066A777A783E681A757DF8AE68093400CAC
:1003900082E090E0809326619093276181E08093D2
:1003A000236108954ECFCF93DF9380910A0CC091C3
:1003B0000B0C84FF11C01092030CA5DF1092266174
:1003C000109227611092246110922561109223618E
:1003D0006FD180E180930A0CC0FF17C083E4809343
:1003E00021628093296228DFD0E1D093400C24DF82
:1003F000D093420C8091F861807609F1803209F443
:10040000A9C01FDF81E080930B0CC5FFE4C0809181
:10041000286285FFA9C010DF80E28093420C8091A2
:100420002661909127618130910509F497C0059765
:1004300009F4D4C0109226611092276195C0E09112
:10044000F961EC30F0F6F0E0E95DFD4F1CC5980273
:10045000A5020102A5020102740233020102810217
:100460008E02A702A5028091FA619091FB61292F6B
:1004700033272230310561F02330310599F02130E6
:10048000310509F0BECF62E170E08DEB90E604C06B
:1004900063E470E08AE790E64091FE615091FF616D
:1004A000DDDEB0CF99278130910569F0C0F0823050
:1004B000910579F0039709F0A4CF6091076070E08F
:1004C00088E090E6E9CF6091576070E088E590E6BB
:1004D000E3CF60911E6070E08FE190E6DDCF64E0D5
:1004E00070E086E790E6D8CF8091FA618F778093AD
:1004F0002561F6DE85E090E0809326619093276188
:1005000081CF80912461809320614091FE61509160
:10051000FF6161E070E080E291E6C2CF8091FA6114
:1005200080932461DDDE88DE82E08093480C6ACF10
:1005300010922161109222614091FE615091FF6101
:1005400062E070E081E291E6ABCFCADE5BCF109251
:100550002061DBCF88EF91E687D054CF84E090E034
:1005600080932661909327618091206285FF12C05D
:1005700063DE80E28093400C809126619091276138
:10058000029799F580912361882319F010922361D5
:1005900089D0A6DE8091386285FF04C04DDE80E2FE
:1005A0008093460C8091406285FF09C045DE80E261
:1005B0008093480C80914262909143628AD08091EE
:1005C000586285FF05C038DE80E280934E0C8FD0E4
:1005D00080E280930B0CDF91CF910895809125618B
:1005E0008093030C1092256125CF10922661109202
:1005F0002761D0CF809168008C7B826498ED94BF96
:100600008093680081E08093060F8FE697E1019761
:10061000F1F700C0000077DE80E292E68093060CDE
:100620009093070C1092080C1092090C83E88093A9
:10063000000C80E492E4AFE0B0E02091850020FD62
:1006400004C00197A109B109C1F71092010C0895E6
:10065000E0E0FCE08181816081830895E0E0FCE0DE
:1006600081818E7F81830895FC019181913299F07F
:1006700018F4903221F096CE9432E8F779CE868144
:1006800097810797C1F781E08093296367E070E065
:1006900080E090E66FCE4681578167E070E080E0B1
:1006A00090E667CE809129638111109229630895A5
:1006B000109227631092286310922563109226638C
:1006C0001092246310922263109223631092296384
:1006D00008958134910510F080E490E080932763C1
:1006E00090932863109225631092266308951092C8
:1006F00024630895DDCF8091276390912863892B2F
:10070000F1F02091256330912663809127639091C9
:1007100028632817390798F01092276310922863EE
:1007200010922563109226631092426210924362E7
:1007300080910B0C82FDFCCF82E08093480C80916D
:100740002463811120C08091226390912363892BBF
:10075000D1F08091586281FF16C080912263909100
:10076000236380935A6290935B6280910B0C82FDAD
:10077000FCCF82E080934E0C81E080932463109242
:10078000226310922363089520912563309126639C
:1007900080912763909128632817390788F4809106
:1007A0002563909126639C012F5F3F4F2093256323
:1007B0003093266388599E49FC01808190E008951A
:1007C0008FEF9FEF0895CF93C82F80912263909170
:1007D00023638034910598F4809122639091236380
:1007E0009C012F5F3F4F2093226330932363885DEA
:1007F0009E49FC01C083CF9108957DDFD4DD8091B7
:1008000024638111FACF8091226390912363803415
:10081000910598F7E1CF8091226390912363892B12
:1008200089F48091246381110DC0089564DFBBDDDC
:1008300080912463811106C080912263909123638B
:10084000892B01F1809124638111F0CF8091226383
:1008500090912363892B51F38091226390912363BC
:1008600080935A6290935B6280910B0C82FDFCCF67
:1008700082E080934E0C81E0809324631092226387
:1008800010922363089584E19EDF80E19CCF109253
:100890004865109249651092456510924665109220
:1008A000446510922F6510922D6510922E6510925E
:1008B0002C6510922A6310922B63E0E3F5E684E145
:1008C000DF011D928A95E9F740E052E06FEF70E09A
:1008D0008CE293E6DEC23F924F925F926F927F92DC
:1008E0008F929F92AF92BF92CF92DF92EF92FF9240
:1008F0000F931F93CF93DF9300D000D0CDB7DEB717
:1009000083E0382E92E0E92EF12C20EF922E34E095
:10091000C32ED12C41EF842EAA24A394B12C34DF12
:1009200097FF15C02496CDBFDEBFDF91CF911F91F9
:100930000F91FF90EF90DF90CF90BF90AF909F907E
:100940008F907F906F905F904F903F900895482FC9
:1009500020914865309149652230310509F477C00E
:10096000C8F42115310509F445C021303105B9F627
:10097000E0912F6591E09E0F90932F65F0E0E05D90
:10098000FA4980838091446581508093446588232F
:10099000E9F1C5CF2430310509F465C108F432C14D
:1009A0002530310509F0BBCFE0912F6591E09E0F16
:1009B00090932F65F0E0E05DFA4980838091446573
:1009C0008150809344658111AACF809130659091C8
:1009D000316598278927982780932D6590932E65F8
:1009E0002091326520932C658130924078F480927A
:1009F00047650CC080934765E0EDE80FE63430F4BE
:100A0000F0E0E153FF4980818E3F29F4E092486590
:100A1000F092496584CF8F3F79F410922F65309220
:100A2000446583E090E0443611F085E090E08093E7
:100A300048659093496573CF882341F310922F65E1
:100A400080934465A0924865B092496568CF803232
:100A500009F069C080914765803F31F580912C6530
:100A60008F7D863499F420912D6530912E656091AB
:100A700045657091466590E080E04CE253E616D102
:100A800002DF109248651092496549CF8534C1F75D
:100A900040912D6550912E656CE273E6809145651D
:100AA00090914665A8D1ECCF813F81F584E18BDE42
:100AB0004090456550904665712C612C10E000E037
:100AC00080912D6590912E650817190718F080E127
:100AD0007ADED7CF80912C658F7D863459F4C3019F
:100AE000B201600F711F811D911D68D16CDE0F5F17
:100AF0001F4FE6CF853441F480914565909146655E
:100B0000800F911FB6D1F2CF8FEFF0CF853409F46B
:100B1000B7CF90F4803409F4B3CF38F4803309F4BC
:100B2000AFCF8133A9F185E1D3CF813409F43EC041
:100B3000823409F4A5CFF7CF823509F4A1CFC0F4F0
:100B4000803509F49DCF813571F784E13CDE80E189
:100B50003ADE61DE19821A821B821C8289819A81A7
:100B6000AB81BC8180349D40A340B10580F1C5DAE2
:100B70008635C9F1853709F43AC08535A1F68091EB
:100B8000306590913165809345659093466578CF47
:100B900084E119DE05E111E6F1E60C311F0709F4E5
:100BA00096CFF80181918F010EDEF6CF80913065EE
:100BB00011E0803839F018E0813821F012E08238F5
:100BC00009F013E084E1FFDD812FFDDD80CF898115
:100BD0009A81AB81BC810196A11DB11D89839A8345
:100BE000AB83BC83BBCF84E1EEDD80E0EECF84E15C
:100BF000EADD80918010E7DD80918110E4DD809155
:100C00008210E3CFE0912F6591E09E0F90932F65C6
:100C1000F0E0E05DFA4980838091446581508093E3
:100C2000446581117CCE8091306590913165982723
:100C30008927982780932D6590932E6520913265A2
:100C400020932C658130E2E09E0708F0DFCE109201
:100C50002A6310922B63892B09F4D8CEC092486581
:100C6000D09249655CCE20912A6330912B63A90113
:100C70004F5F5F4F40932A6350932B63245D3C4941
:100C8000F901808380912D6590912E654817590751
:100C900008F445CE90924765B9CE9091061091FD2B
:100CA000FCCF9DE994BF809300100895CF92DF920E
:100CB000EF92FF920F931F93CF93DF936115E0E1C3
:100CC0007E078105910508F470C02115310509F4EE
:100CD0006CC089012130324010F000E012E0209118
:100CE0000110E1E0F0E0611530E87307810591053E
:100CF00010F4F0E0E0E07A016F0184E0CC0CDD1C40
:100D00008A95E1F72F7C2C2938ED34BF2093011010
:100D1000EB01D06888E0C1DF8FEF888380910610F7
:100D200081FDFCCF81E0B9DF809101108F7C8C299F
:100D300098ED94BF8093011082E0AFDFF70181E06E
:100D400090E0AE014E195F09DA01AE0FBF1F8017A8
:100D50009107E8F0A8014E7FC40FD51F4017510737
:100D600060F4E40EF51EF701808190E09F6F8883A8
:100D700099838091061081FDFCCF81E0DF91CF91B6
:100D80001F910F91FF90EF90DF90CF9086CF218140
:100D900030812327322723272D933C93209106105F
:100DA00021FDFCCF02963296CFCFDF91CF911F91DC
:100DB0000F91FF90EF90DF90CF9008954091011038
:100DC00021E030E0611550E875078105910510F4C8
:100DD00030E020E084E0220F331F8A95E1F7342FC2
:100DE0003F7C322B28ED24BF30930110AB015068BB
:100DF000FA01808108950F931F938F3F910509F0A9
:100E000058F58A0130E020E0080F191F211D311D1F
:100E10000130114021053105E0F040E051E0481B70
:100E2000590B209106102370E1F72DE924BF23E12F
:100E300020930010460F571FFB01861B970B9C5EEB
:100E4000E417F50761F48DE984BF81E08093001019
:100E500003C04115510529F71F910F910895DC0139
:100E6000AE0FBF1F21912C932091061020FDFCCFC7
:100E7000E7CF8F3F910509F020F49C5EFC01808153
:100E800008958FEF0895EE0FFF1F0590F491E02D68
:100E90000994DC0101C06D9341505040E0F7089582
:040EA000F894FFCFF4
:100EA40000C2010000000816160342004C00300086
:100EB400300030003000300030003000310038386D
:100EC40003570061007A0061006D006F006E006FCF
:100ED40000200054007300750072007500670069FB
:100EE40000200042006F006F0074006C006F00610E
:100EF400006400650072001E1E0357006F0072003C
:100F04006B00730068006F007000200041007300E4
:100F14006100680069000403090409024300020136
:100F240000803209040000010202010005240010BF
:100F3400010524010001042402020524060001071E
:100F440005810310004009040100020A00000007A3
:100F54000502024000000705830240000012010060
:100F6400020200004009120700000101020301000F
:100F740000FEFEFEFEFEFEFEFEFEFEFEFEFEFE0287
:100F84000114FEFE05FEFEFEFEFEFEFEFEFEFE005B
:100F94000000FEFE0204FEFEFEFEFEFEFEFEFEFE5F
:100FA400FEFEFEFFFEFEFEFEFEFEFEFEFEFEFEFE5C
:0E0FB400FEFEFEFF004156522053544B00003B
:00000001FF
