:1000000043C000005CC000005AC0000058C000009F
:1000100056C0000054C0000052C0000050C0000094
:100020004EC000004CC000004AC0000048C00000A4
:1000300046C0000044C0000042C0000040C00000B4
:100040003EC000003CC000003AC0000038C00000C4
:1000500036C0000034C0000032C0000030C00000D4
:100060002EC000002CC000002AC0000028C00000E4
:1000700026C0000024C0000022C0000020C00000F4
:100080001EC000001CC0000011241FBECFEFCDBF5A
:10009000DFE7DEBF11E6A0E0B0E6E4EAFEE002C082
:1000A00005900D92AA31B107D9F725E6AAE1B1E68C
:1000B00001C01D92A634B207E1F72BD0F1C6A0CF44
:1000C000CF93DF9300D0CDB7DEB78AE190E0019700
:1000D00029F40F900F90DF91CF91089519821A8221
:1000E00029813A81283E334090F7000029813A81E6
:1000F0002F5F3F4F29833A83F3CF80E280936504DB
:1001000080936204ABD288ED91E084BF90930001AC
:10011000FFCF209140002CBB8FEF80934000809157
:100120001001806490E038ED34BF8093100124FF0B
:1001300034C01092466510924765C0E4DFE18091BB
:100140006800837C846298ED94BF8093680080E0AF
:1001500094BF809361008091650081FFFCCF4AD2FB
:10016000C9D295D3C0931A61D0931B6180E280936A
:100170006104809365046CD210E2D0E0C0E013D13A
:10018000BAD2A9D3219680911A6190911B61C817A8
:10019000D907A8F310936704F0CF22FF25C0809100
:1001A0004665909147658D399B4639F410924665B6
:1001B00010924765C0E8DEE3C2CF8DE99BE68093ED
:1001C00046659093476580E280936104DAE0C0E27F
:1001D000C093660475DFC093650472DFD150C1F728
:1001E000C0936504C09362041092466510924765FF
:1001F000E0E0F0E185919491C0E0DDE7019609F43B
:100200009ECFF89480E2809365048093620480918D
:10021000100128ED8F7B90E024BF80931001109295
:10022000000C1092010C80910110806324BF809318
:100230000110E0E0F8E0099480910B0C82FDFCCF06
:100240000895ECEFF1E681A1846081A381A584602B
:1002500081A710922261109223610895CF939B0190
:100260004617570708F49A01FC01A4EBB1E62134C4
:10027000310580F080932862909329622093266252
:100280003093276210922A6210922B6283E717C084
:1002900081918D93CD01845B914682179307C0F3C2
:1002A00084EB91E6809328629093296220932662E2
:1002B0003093276210922A6210922B6283E480931B
:1002C0002562BADFCAE6C093420CB6DFC093400C89
:1002D00081E090E08093226190932361CF91089513
:1002E000ECEFF1E612A613A616A617A683E481A7E3
:1002F000A3DF8AE68093420C83E090E08093226142
:10030000909323610895ECEFF1E682E291E0DF0142
:100310009C011D9221503040E1F783E481A324EF3A
:1003200031E624A335A310A281A784EB91E684A72C
:1003300095A782E080A791E891AF24EA31E624AF47
:1003400035AF80AF93E890933D6224E631E6209389
:1003500040623093416210923C629093556224E275
:1003600031E6209358623093596280935462089525
:10037000B7CF74CFECEFF1E684A795A712A613A62A
:1003800066A777A783E681A757DF8AE68093400CAC
:1003900082E090E0809322619093236181E08093DA
:1003A0001F6108954ECFCF93DF9380910A0CC091C7
:1003B0000B0C84FF11C01092030CA5DF1092226178
:1003C00010922361109220611092216110921F619E
:1003D0006FD180E180930A0CC0FF17C083E4809343
:1003E0001D628093256228DFD0E1D093400C24DF8A
:1003F000D093420C8091F461807609F1803209F447
:10040000A9C01FDF81E080930B0CC5FFE4C0809181
:10041000246285FFA9C010DF80E28093420C8091A6
:100420002261909123618130910509F497C005976D
:1004300009F4D4C0109222611092236195C0E0911A
:10044000F561EC30F0F6F0E0E95DFD4F1CC5980277
:10045000A5020102A5020102740233020102810217
:100460008E02A702A5028091F6619091F761292F73
:1004700033272230310561F02330310599F02130E6
:10048000310509F0BECF62E170E089EB90E604C06F
:1004900063E470E086E790E64091FA615091FB6179
:1004A000DDDEB0CF99278130910569F0C0F0823050
:1004B000910579F0039709F0A4CF6091076070E08F
:1004C00088E090E6E9CF6091536070E084E590E6C3
:1004D000E3CF60911E6070E08FE190E6DDCF64E0D5
:1004E00070E082E790E6D8CF8091F6618F778093B5
:1004F0002161F6DE85E090E0809322619093236194
:1005000081CF8091206180931C614091FA6150916C
:10051000FB6161E070E08CE191E6C2CF8091F66111
:1005200080932061DDDE88DE82E08093480C6ACF14
:1005300010921D6110921E614091FA615091FB6111
:1005400062E070E08DE191E6ABCFCADE5BCF109246
:100550001C61DBCF84EF91E687D054CF84E090E03C
:10056000809322619093236180911C6285FF12C069
:1005700063DE80E28093400C809122619091236140
:10058000029799F580911F61882319F010921F61DD
:1005900089D0A6DE8091346285FF04C04DDE80E202
:1005A0008093460C80913C6285FF09C045DE80E265
:1005B0008093480C80913E6290913F628AD08091F6
:1005C000546285FF05C038DE80E280934E0C8FD0E8
:1005D00080E280930B0CDF91CF910895809121618F
:1005E0008093030C1092216125CF1092226110920A
:1005F0002361D0CF809168008C7B826498ED94BF9A
:100600008093680081E08093060F8FE697E1019761
:10061000F1F700C0000077DE8CE192E68093060CD3
:100620009093070C1092080C1092090C83E88093A9
:10063000000C80E492E4AFE0B0E02091850020FD62
:1006400004C00197A109B109C1F71092010C0895E6
:10065000E0E0FCE08181816081830895E0E0FCE0DE
:1006600081818E7F81830895FC019181913299F07F
:1006700018F4903221F096CE9432E8F779CE868144
:1006800097810797C1F781E08093256367E070E069
:1006900080E090E66FCE4681578167E070E080E0B1
:1006A00090E667CE809125638111109225630895AD
:1006B000109223631092246310922163109222639C
:1006C0001092206310921E6310921F631092256394
:1006D00008958134910510F080E490E080932363C5
:1006E00090932463109221631092226308951092D4
:1006F00020630895DDCF8091236390912463892B3B
:10070000F1F02091216330912263809123639091D5
:1007100024632817390798F01092236310922463FA
:10072000109221631092226310923E6210923F62F7
:1007300080910B0C82FDFCCF82E08093480C80916D
:100740002063811120C080911E6390911F63892BCB
:10075000D1F08091546281FF16C080911E63909108
:100760001F63809356629093576280910B0C82FDB9
:10077000FCCF82E080934E0C81E080932063109246
:100780001E6310921F6308952091216330912263AC
:1007900080912363909124632817390788F480910E
:1007A0002163909122639C012F5F3F4F209321632F
:1007B000309322638C599E49FC01808190E008951A
:1007C0008FEF9FEF0895CF93C82F80911E63909174
:1007D0001F638034910598F480911E6390911F638C
:1007E0009C012F5F3F4F20931E6330931F638C5DEE
:1007F0009E49FC01C083CF9108957DDFD4DD8091B7
:1008000020638111FACF80911E6390911F63803421
:10081000910598F7E1CF80911E6390911F63892B1A
:1008200089F48091206381110DC0089564DFBBDDE0
:1008300080912063811106C080911E6390911F6397
:10084000892B01F1809120638111F0CF80911E638B
:1008500090911F63892B51F380911E6390911F63C8
:10086000809356629093576280910B0C82FDFCCF6F
:1008700082E080934E0C81E08093206310921E638F
:1008800010921F63089584E19EDF80E19CCF109257
:100890004465109245651092416510924265109230
:1008A000406510922B651092296510922A6510926E
:1008B00028651092266310922763ECE2F5E684E146
:1008C000DF011D928A95E9F740E052E06FEF70E09A
:1008D00088E293E6DEC23F924F925F926F927F92E0
:1008E0008F929F92AF92BF92CF92DF92EF92FF9240
:1008F0000F931F93CF93DF9300D000D0CDB7DEB717
:1009000083E0382E92E0E92EF12C20EF922E34E095
:10091000C32ED12C41EF842EAA24A394B12C34DF12
:1009200097FF15C02496CDBFDEBFDF91CF911F91F9
:100930000F91FF90EF90DF90CF90BF90AF909F907E
:100940008F907F906F905F904F903F900895482FC9
:1009500020914465309145652230310509F477C016
:10096000C8F42115310509F445C021303105B9F627
:10097000E0912B6591E09E0F90932B65F0E0E45D94
:10098000FA49808380914065815080934065882337
:10099000E9F1C5CF2430310509F465C108F432C14D
:1009A0002530310509F0BBCFE0912B6591E09E0F1A
:1009B00090932B65F0E0E45DFA4980838091406577
:1009C0008150809340658111AACF80912C659091D0
:1009D0002D659827892798278093296590932A6504
:1009E00020912E65209328658130924078F4809282
:1009F00043650CC080934365E0EDE80FE63430F4C6
:100A0000F0E0E553FF4980818E3F29F4E092446590
:100A1000F092456584CF8F3F79F410922B65309228
:100A2000406583E090E0443611F085E090E08093EB
:100A300044659093456573CF882341F310922B65ED
:100A400080934065A0924465B092456568CF80323E
:100A500009F069C080914365803F31F58091286538
:100A60008F7D863499F42091296530912A656091B3
:100A700041657091426590E080E048E253E616D10E
:100A800002DF109244651092456549CF8534C1F765
:100A90004091296550912A6568E273E6809141652D
:100AA00090914265A8D1ECCF813F81F584E18BDE46
:100AB0004090416550904265712C612C10E000E03F
:100AC0008091296590912A650817190718F080E12F
:100AD0007ADED7CF809128658F7D863459F4C301A3
:100AE000B201600F711F811D911D68D16CDE0F5F17
:100AF0001F4FE6CF853441F4809141659091426566
:100B0000800F911FB6D1F2CF8FEFF0CF853409F46B
:100B1000B7CF90F4803409F4B3CF38F4803309F4BC
:100B2000AFCF8133A9F185E1D3CF813409F43EC041
:100B3000823409F4A5CFF7CF823509F4A1CFC0F4F0
:100B4000803509F49DCF813571F784E13CDE80E189
:100B50003ADE61DE19821A821B821C8289819A81A7
:100B6000AB81BC8180349D40A340B10580F1C5DAE2
:100B70008635C9F1853709F43AC08535A1F68091EB
:100B80002C6590912D65809341659093426578CF57
:100B900084E119DE01E111E6F1E608311F0709F4ED
:100BA00096CFF80181918F010EDEF6CF80912C65F2
:100BB00011E0803839F018E0813821F012E08238F5
:100BC00009F013E084E1FFDD812FFDDD80CF898115
:100BD0009A81AB81BC810196A11DB11D89839A8345
:100BE000AB83BC83BBCF84E1EEDD80E0EECF84E15C
:100BF000EADD80918010E7DD80918110E4DD809155
:100C00008210E3CFE0912B6591E09E0F90932B65CE
:100C1000F0E0E45DFA4980838091406581508093E3
:100C2000406581117CCE80912C6590912D6598272F
:100C3000892798278093296590932A6520912E65AE
:100C4000209328658130E2E09E0708F0DFCE109205
:100C5000266310922763892B09F4D8CEC09244658D
:100C6000D09245655CCE2091266330912763A9011F
:100C70004F5F5F4F4093266350932763285D3C4945
:100C8000F90180838091296590912A654817590759
:100C900008F445CE90924365B9CE9091061091FD2F
:100CA000FCCF9DE994BF809300100895CF92DF920E
:100CB000EF92FF920F931F93CF93DF936115E0E1C3
:100CC0007E078105910508F470C02115310509F4EE
:100CD0006CC089012130324010F000E012E0209118
:100CE0000110E1E0F0E0611530E87307810591053E
:100CF00010F4F0E0E0E07A016F0184E0CC0CDD1C40
:100D00008A95E1F72F7C2C2938ED34BF2093011010
:100D1000EB01D06888E0C1DF8FEF888380910610F7
:100D200081FDFCCF81E0B9DF809101108F7C8C299F
:100D300098ED94BF8093011082E0AFDFF70181E06E
:100D400090E0AE014E195F09DA01AE0FBF1F8017A8
:100D50009107E8F0A8014E7FC40FD51F4017510737
:100D600060F4E40EF51EF701808190E09F6F8883A8
:100D700099838091061081FDFCCF81E0DF91CF91B6
:100D80001F910F91FF90EF90DF90CF9086CF218140
:100D900030812327322723272D933C93209106105F
:100DA00021FDFCCF02963296CFCFDF91CF911F91DC
:100DB0000F91FF90EF90DF90CF9008954091011038
:100DC00021E030E0611550E875078105910510F4C8
:100DD00030E020E084E0220F331F8A95E1F7342FC2
:100DE0003F7C322B28ED24BF30930110AB015068BB
:100DF000FA01808108950F931F938F3F910509F0A9
:100E000058F58A0130E020E0080F191F211D311D1F
:100E10000130114021053105E0F040E051E0481B70
:100E2000590B209106102370E1F72DE924BF23E12F
:100E300020930010460F571FFB01861B970B9C5EEB
:100E4000E417F50761F48DE984BF81E08093001019
:100E500003C04115510529F71F910F910895DC0139
:100E6000AE0FBF1F21912C932091061020FDFCCFC7
:100E7000E7CF8F3F910509F020F49C5EFC01808153
:100E800008958FEF0895EE0FFF1F0590F491E02D68
:100E90000994DC0101C06D9341505040E0F7089582
:040EA000F894FFCFF4
:100EA40000C2010000000816160342004C00300086
:100EB4003000300030003000300030003100343475
:100EC40003570061007A0061006D006F006E006FCF
:100ED40000200054006100630068006900200042A3
:100EE400006F006F0074006C006F006100640065A7
:100EF4000072001E1E0357006F0072006B00730027
:100F040068006F00700020004100730061006800F9
:100F14006900040309040902430002010080320944
:100F2400040000010202010005240010010524014F
:100F340000010424020205240600010705810310B0
:100F4400004009040100020A0000000705020240F3
:100F540000000705830240000012010002020000A5
:100F640040091205000001010203010000FEFEFE1B
:100F7400FEFEFEFEFEFEFEFEFEFEFE020114FEFE70
:100F840005FEFEFEFEFEFEFEFEFEFE000000FEFE70
:100F94000204FEFEFEFEFEFEFEFEFEFEFEFEFEFF62
:100FA400FEFEFEFEFEFEFEFEFEFEFEFEFEFEFEFF5C
:0A0FB400004156522053544B000038
:00000001FF
