:1000000043C000005CC000005AC0000058C000009F
:1000100056C0000054C0000052C0000050C0000094
:100020004EC000004CC000004AC0000048C00000A4
:1000300046C0000044C0000042C0000040C00000B4
:100040003EC000003CC000003AC0000038C00000C4
:1000500036C0000034C0000032C0000030C00000D4
:100060002EC000002CC000002AC0000028C00000E4
:1000700026C0000024C0000022C0000020C00000F4
:100080001EC000001CC0000011241FBECFEFCDBF5A
:10009000DFE7DEBF11E6A0E0B0E6E8E9FEE002C07F
:1000A00005900D92A832B107D9F725E6A8E2B1E68E
:1000B00001C01D92A635B207E1F72BD0C8C6A0CF6C
:1000C00098E0AC9A00C000C0000087FFAC9800C068
:1000D00000C000C000C0AC98880F00C000009A9516
:1000E00081F70895CF93CFB7F89480E0E9DF80E0FF
:1000F000E7DF80E0E5DFCFBF80E18093A604CF910A
:100100000895F0DFC0D288ED91E084BF90930001A4
:10011000FFCF00D0CDB7DEB7809140008CBB9FEF02
:100120009093400090911001906428ED24BF90932B
:10013000100184FF51C0109256651092576500E47B
:100140001FE18091680098ED837C846294BF809366
:10015000680080E094BF809361008091650081FF1A
:10016000FCCF5DD2DDD2B0D300932A6110932B6116
:100170001092296181E08093286180E18093A1043D
:100180008093A6047AD200E010E032D1CAD2C0D364
:100190000F5F1F4F80912A6190912B6125E096950A
:1001A00087952A95E1F70817190778F38091296157
:1001B000811163C041E04093286100912861080FDC
:1001C000009329611FB7F894802F7ADF802F78DFA2
:1001D00080E076DF1FBFD7CF82FF24C080915665B5
:1001E000909157658D399B4639F41092566510925F
:1001F000576500E81EE3A5CF8DE99BE68093566521
:100200009093576580E18093A1048093A60484EFC6
:1002100091E019821A8229813A81283E334028F1DF
:100220000197B9F71092566510925765E0E0F0E13A
:100230008591959100E01DE7019609F482CFF8942D
:1002400051DF8091100198ED8F7B94BF8093100156
:100250001092000C1092010C80910110806394BFE9
:1002600080930110E0E0F8E00994000029813A81D0
:100270002F5F3F4F29833A83CECF803608F49DCF3E
:100280009FEF9093286199CF80910B0C82FDFCCF5A
:100290000895ECE0F2E681A1846081A381A58460E9
:1002A00081A710923261109233610895CF939B0120
:1002B0004617570708F49A012134310550F5FC011F
:1002C000820F931FA4ECB1E6E817F907F9F484EC68
:1002D00091E680933862909339622093366230932E
:1002E000376210923A6210923B6283E480933562E7
:1002F000CBDFCAE6C093420CC7DFC093400C81E05D
:100300008093326110923361CF91089541914D9362
:10031000DBCF8093386290933962209336623093BA
:10032000376210923A6210923B6283E7DFCFECE0D3
:10033000F2E612A613A616A617A683E481A7A4DFE9
:100340008AE68093420C83E080933261109233619D
:100350000895ECE0F2E682E291E0DF019C011D925B
:1003600021503040E1F783E481A324E032E624A366
:1003700035A310A281A784EC91E684A795A782E01B
:1003800080A791E891AF24EB31E624AF35AF80AF81
:1003900093E890934D6224E731E6209350623093C6
:1003A000516210924C629093656224E331E620938F
:1003B000686230936962809364620895B8CF76CFA3
:1003C000ECE0F2E684A795A712A613A666A777A786
:1003D00083E681A759DF8AE68093400C82E0809310
:1003E00032611092336181E080932F61089551CF83
:1003F000CF93DF9380910A0CC0910B0C84FF11C046
:100400001092030CA6DF10923261109233611092A9
:1004100030611092316110922F6160D180E1809340
:100420000A0CC0FF17C083E480932D62809335626D
:100430002BDFD0E1D093400C27DFD093420C80918A
:100440000462807609F1803209F49AC022DF81E0EB
:1004500080930B0CC5FFD4C08091346285FF99C096
:1004600013DF80E28093420C80913261909133617E
:100470008130910509F488C0059709F4C4C0109231
:1004800032611092336185C0E0910562EC30F0F684
:10049000F0E0E75DF84FCEC420910662309107622C
:1004A000832F90E08230910589F18330910539F0F6
:1004B000019761F662E170E085EC90E61BC0822F47
:1004C00090E02230E9F08330910538F4892B69F40B
:1004D00064E070E08EE790E60DC009F0B7CF609160
:1004E000076070E088E090E605C060915F6070E0B2
:1004F00080E690E640910A6250910B62D7DEA7CF6A
:1005000060911E6070E08FE190E6F4CF63E470E0EC
:1005100082E890E6EFCF809106628F778093316119
:1005200006DF85E0809332611092336190CF809135
:10053000306180932C6140910A6250910B6261E0BE
:1005400070E08CE291E6DACF8091066280933061B0
:10055000EEDE9ADE82E08093480C79CF10922D6116
:1005600010922E6140910A6250910B6262E070E03D
:100570008DE291E6C3CFDBDE6ACF10922C61DBCF38
:1005800084E092E686D063CF84E08093326110925B
:10059000336180912C6285FF12C076DE80E2809309
:1005A000400C8091326190913361029799F580916E
:1005B0002F61811519F010922F618AD0B8DE8091D9
:1005C000446285FF04C060DE80E28093460C809127
:1005D0004C6285FF09C058DE80E28093480C809110
:1005E0004E6290914F628BD08091646285FF05C00E
:1005F0004BDE80E280934E0C90D080E280930B0C17
:10060000DF91CF910895809131618093030C109216
:10061000316135CF1092326110923361D0CF809129
:1006200068008C7B826498ED94BF8093680081E0C1
:100630008093060F8FE697E10197F1F700C0000065
:1006400088DE8CE292E68093060C9093070C109261
:10065000080C1092090C83E88093000C80E492E46B
:10066000AFE0B0E02091850020FD04C00197A040DC
:10067000B040C1F71092010C0895E0E0FCE08181E8
:10068000816081830895E0E0FCE081818E7F818339
:100690000895FC019181943230F49232C0F490328A
:1006A00019F0913269F0A3CE868197810797D9F727
:1006B00081E08093356367E070E080E090E680CE73
:1006C0004681578167E070E080E090E678CE76CE94
:1006D00080913563811110923563089510923363D0
:1006E000109234631092316310923263109230632F
:1006F00010922E6310922F63109235630895813407
:10070000910510F080E490E080933363909334631C
:1007100010923163109232630895109230630895FD
:10072000DDCF8091336390913463892BF1F0209178
:100730003163309132638091336390913463281731
:10074000390798F01092336310923463109231633A
:100750001092326310924E6210924F6280910B0C95
:1007600082FDFCCF82E08093480C80913063811140
:1007700020C080912E6390912F63892BD1F08091BE
:10078000646281FF16C080912E6390912F638093E5
:1007900066629093676280910B0C82FDFCCF82E0D1
:1007A00080934E0C81E08093306310922E63109200
:1007B0002F630895209131633091326380913363C8
:1007C000909134632817390788F4809131639091B0
:1007D00032639C012F5F3F4F20933163309332632C
:1007E0008C589E49FC01808190E008958FEF9FEF27
:1007F0000895CF93DF930F92CDB7DEB789838091B1
:100800002E6390912F6380349105B0F480912E6314
:1008100090912F639C012F5F3F4F20932E63309365
:100820002F638C5C9E492981FC0120830F90DF910E
:10083000CF91089576DFDCDD809130638111FACFAE
:1008400080912E6390912F638034910598F7DECFCD
:1008500080912E6390912F63892B89F4809130636E
:1008600081110DC008955DDFC3DD8091306381117A
:1008700006C080912E6390912F63892B01F18091A6
:1008800030638111F0CF80912E6390912F63892B7B
:1008900051F380912E6390912F63809366629093C1
:1008A000676280910B0C82FDFCCF82E080934E0C3E
:1008B00081E08093306310922E6310922F6308952D
:1008C00084E197DF80E195CF1092546510925565D1
:1008D00010925165109252651092506510923B65CE
:1008E0001092396510923A6510923865109236630D
:1008F00010923763ECE3F5E684E1DF011D928A95FF
:10090000E9F740E052E06FEF70E088E393E698C2C9
:100910008F929F92AF92BF92EF92FF920F931F938D
:10092000CF93DF9300D000D0CDB7DEB702E010E068
:1009300041DF97FF0EC02496CDBFDEBFDF91CF9180
:100940001F910F91FF90EF90BF90AF909F908F906D
:100950000895482F20915465309155652330310515
:1009600009F43FC148F52130310509F47AC022303D
:10097000310509F04EC0803209F0CFC0E0915365D7
:10098000E03F09F08FC0809138658F7D863409F093
:100990007AC02091396530913A65609151657091C6
:1009A000526580E090E048E353E66CD189DF109215
:1009B000546510925565BCCF2430310509F43DC112
:1009C0002530310509F0B4CFE0913B6591E09E0FF1
:1009D00090933B65F0E0E45CFA4980838091506538
:1009E0008150809350658111A3CF80913C65909197
:1009F0003D659827892798278093396590933A65B4
:100A000020913E65209338658130924070F481EFEB
:100A10002CC1809353658053863438F4E82FF0E07E
:100A2000E652FF4980818E3F29F40093546510936C
:100A300055657ECF70F010923B6583E080935065E2
:100A4000443629F4809354651092556571CF85E042
:100A5000F9CF811551F310923B658093506581E089
:100A6000F1CFE0913B6591E09E0F90933B65F0E004
:100A7000E45CFA4980838091506581508093506591
:100A8000811599F255CF853409F090CF40913965A1
:100A900050913A6568E373E6809151659091526593
:100AA00089D184CFE13F81F584E1A3DE8090516557
:100AB00090905265A12CB12C75018091396590916F
:100AC0003A65E816F90618F080E193DE70CF809160
:100AD00038658F7D863461F4B401C5016E0D7F1DCC
:100AE000811D911D53D185DE2FEFE21AF20AE5CF69
:100AF000853441F480915165909152658E0D9F1D12
:100B000091D1F1CF8FEFEFCFE73580F4E03438F4B7
:100B1000E03309F44BCFE133B1F085E1D6CFE054B7
:100B2000E731D8F7F0E0EB5CF84F84C1E537A9F77F
:100B300084E15FDE809180105CDE8091811059DE5F
:100B40008091821020C084E154DE90E2E92E91E68B
:100B5000F92EF7014FEFE41AF40A80814ADE87E2AA
:100B6000E81681E6F806A9F7AFCFE0913C65E058BA
:100B700083E0F82EE33020F4F0E0E952FF49F08002
:100B800084E137DE8F2D35DE9FCF84E132DE80E1D8
:100B900030DE5EDE19821A821B821C8289819A8174
:100BA000AB81BC8180349D40A340B10508F0A9DA37
:100BB00089819A81AB81BC810196A11DB11D898378
:100BC0009A83AB83BC83EACF80913C6590913D656D
:100BD0008093516590935265E9CE84E10ADE80E00E
:100BE000D2CFE0913B6591E09E0F90933B65F0E0A2
:100BF000E45CFA4980838091506581508093506510
:100C0000811196CE80913C6590913D65382F292FBA
:100C10009093396580933A6540913E65409338657D
:100C20002130324008F001CF1092366310923763C2
:100C3000892B09F4FACE84E005CF209136633091F8
:100C40003763A9014F5F5F4F40933663509337631B
:100C5000285C3C49F90180838091396590913A651F
:100C60004817590708F464CE80EF8093536582E0FB
:100C7000E9CE9091061091FDFCCF9DE994BF809341
:100C800000100895BF92CF92DF92EF92FF920F93E0
:100C90001F93CF93DF936A0170318105910508F4AA
:100CA0006BC02115310509F467C0E90121303240DC
:100CB00010F0C0E0D2E02091011031E070388105E1
:100CC000910508F430E0F32EF29480EFF8222F7CA7
:100CD000322F3F2928ED24BF309301108B0110687B
:100CE000E02EB12E88E0C5DF8FEFF8018083809180
:100CF000061081FDFCCF81E0BCDF809101108F7C6C
:100D0000F82A88ED84BFF092011082E0B2DFD601AC
:100D100081E090E08C179D07F0F0CE018E7F8C175C
:100D20009D0770F4EC01C00FD11FC80ED91EF6014B
:100D300080819FEF888399838091061081FDFCCF8D
:100D400081E0DF91CF911F910F91FF90EF90DF90A5
:100D5000CF90BF908ECF11964C912E91342FEE2DC7
:100D6000FB2D219331932091061021FDFCCF02969B
:100D70001296EE2EBF2ECECFDF91CF911F910F9105
:100D8000FF90EF90DF90CF90BF90089530910110C9
:100D900021E070388105910508F420E03F7C20FDBA
:100DA000306128ED24BF30930110AB015068FA0187
:100DB000808108950F931F93911131C08A0120E023
:100DC00030E0080F191F211D311D01301140210590
:100DD000310510F140E051E0481B590BFC01FC5E6D
:100DE000809106108370E1F78DE984BF83E18093E1
:100DF0000010DB01460F571F8D91808380910610F4
:100E000080FDFCCF3196A417B507B1F78DE984BFFB
:100E100081E08093001003C041155105F9F61F9140
:100E20000F910895911104C0FC01FC5E808108952A
:100E30008FEF0895EE0FFF1F0590F491E02D0994B8
:100E4000DC0101C06D9341505040E0F70895F894E3
:100E5000FFCFAE02BB022602BB0226028B024C026F
:100E600026029702A402BD02BB02D604B505D60431
:100E70008D058D05D6048D058D058D058D058D059A
:100E80008D058D058D058D058D05D604C505D6040A
:080E90008D058D05E405ED055B
:100E980000C2010000000816160342004C00300092
:100EA8003000300030003000300030003100404069
:100EB8000355006B00690055006B006900640075FC
:100EC8000069006E006F002000500072006F004D36
:100ED800006900630072006F00200042006F006F1D
:100EE8000074006C006F0061006400650072001EF1
:100EF8001E0357006F0072006B00730068006F00DC
:100F0800700020004100730061006800690004035C
:100F180009040902430002010080320904000001AB
:100F28000202010005240010010524010001042427
:100F38000202052406000107058103100040090488
:100F48000100020A00000007050202400000070530
:100F58008302400000120100020200004009120D45
:100F6800000001010203010108020000FEFEFEFE6E
:100F7800FEFEFEFEFEFEFEFEFEFE020114FEFE0565
:100F8800FEFEFEFEFEFEFEFEFEFE000000FEFE026F
:100F980004FEFEFEFEFEFEFEFEFEFEFEFEFEFFFE62
:100FA800FEFEFEFEFEFEFEFEFEFEFEFEFEFEFF0056
:080FB8004156522053544B0036
:040FFA00F8950895C9
:020FFE00011AD6
:00000001FF
